:100000000C9462000C948A000C948A000C948A0070
:100010000C948A000C948A000C948A000C948A0038
:100020000C948A000C948A000C948A000C948A0028
:100030000C948A000C948A000C948A000C948A0018
:100040000C94BF030C948A000C948D030C946703EA
:100050000C948A000C948A000C948A000C948A00F8
:100060000C948A000C948A000000000024002700F1
:100070002A0000000000250028002B0000000000DE
:1000800023002600290004040404040404040202DA
:100090000202020203030303030301020408102007
:1000A0004080010204081020010204081020000012
:1000B0000008000201000003040700000000000027
:1000C0000000090411241FBECFEFD8E0DEBFCDBF72
:1000D00011E0A0E0B1E0E2E9FEE002C005900D927F
:1000E000AE36B107D9F722E0AEE6B1E001C01D920D
:1000F000AE38B207E1F710E0C2E6D0E004C02197C5
:10010000FE010E943807C136D107C9F70E94960444
:100110000C9447070C94000096E0899FD0011124AD
:10012000A15EBD4F90967C936E935F9791E0919600
:100130009C939197E0918C02F0918D0290918B02AB
:10014000992339F0309751F0811108C080913B021A
:100150000994309719F05C968C91FACF0895CF925C
:10016000DF92EF92FF920F931F9396E0899FF00129
:100170001124E15EFD4F11A2278D30A12130310500
:1001800051F178F02230310509F451C023303105A6
:1001900009F452C01F910F91FF90EF90DF90CF9024
:1001A00008956623B9F361E070E00E948C002FB7D8
:1001B000F89480917E0190917F01A0918001B0918F
:1001C00081012FBF8093770290937802A0937902E8
:1001D000B0937A02DFCF9FB7F894C0907E01D090A1
:1001E0007F01E0908001F09081019FBF0091770234
:1001F000109178022091790230917A02C01AD10AC6
:10020000E20AF30A0091890210918A0230E020E0AC
:100210000C151D052E053F0550F462E070E01F919E
:100220000F91FF90EF90DF90CF900C948C006111B4
:10023000B1CF63E070E0F3CF70E060E0F0CFAF9259
:10024000BF92CF92DF92EF92FF920F931F93CF93C3
:10025000DF936C017B018B01040F151FEB015E0125
:10026000AE18BF08C017D10759F06991D601ED91BA
:10027000FC910190F081E02DC6010995892B79F759
:10028000C501DF91CF911F910F91FF90EF90DF900B
:10029000CF90BF90AF900895FC01538D448D252FD2
:1002A00030E0842F90E0821B930B541710F0CF9610
:1002B000089501970895FC01918D828D981761F042
:1002C000A28DAE0FBF2FB11D5D968C91928D9F5F59
:1002D0009F73928F90E008958FEF9FEF0895FC0138
:1002E000918D828D981731F0828DE80FF11D858DEB
:1002F00090E008958FEF9FEF0895FC01918D228D7E
:10030000892F90E0805C9F4F821B91098F73992702
:10031000089582E891E00E947D0121E0892B09F493
:1003200020E0822F089580E090E0892B29F00E9440
:10033000890181110C9400000895FC01A48DA80F7F
:10034000B92FB11DA35ABF4F2C91848D90E0019617
:100350008F739927848FA689B7892C93A089B18937
:100360008C91837080648C93938D848D981306C0D8
:100370000288F389E02D80818F7D80830895EF923C
:10038000FF920F931F93CF93DF93EC0181E0888F4F
:100390009B8D8C8D98131AC0E889F989808185FF1F
:1003A00015C09FB7F894EE89FF896083E889F989C1
:1003B00080818370806480839FBF81E090E0DF91C3
:1003C000CF911F910F91FF90EF900895F62E0B8D16
:1003D00010E00F5F1F4F0F731127E02E8C8D8E11D1
:1003E0000CC00FB607FCFACFE889F989808185FF38
:1003F000F5CFCE010E949D01F1CFEB8DEC0FFD2FCB
:10040000F11DE35AFF4FF0829FB7F8940B8FEA89F2
:10041000FB8980818062CFCFCF93DF93EC01888D01
:100420008823B9F0AA89BB89E889F9898C9185FD6F
:1004300003C0808186FD0DC00FB607FCF7CF8C91FD
:1004400085FFF2CF808185FFEDCFCE010E949D0117
:10045000E9CFDF91CF910895833081F028F4813086
:1004600099F08230A9F008958730A9F08830C9F05A
:100470008430B1F4809180008F7D03C08091800032
:100480008F7780938000089584B58F7784BD089519
:1004900084B58F7DFBCF8091B0008F778093B000C3
:1004A00008958091B0008F7DF9CFCF93DF93282FEF
:1004B00030E0F901E255FF4F8491F901E656FF4F14
:1004C000D491F901EA57FF4FC491CC23A1F08111D7
:1004D0000E942C02EC2FF0E0EE0FFF1FE458FF4FBC
:1004E000A591B491EC91ED2381E090E009F480E0D6
:1004F000DF91CF91089580E090E0FACF862F0C94A1
:1005000055021F93CF93DF93282F30E0F901E25576
:10051000FF4F8491F901E656FF4FD491F901EA5754
:10052000FF4FC491CC23A9F0162F81110E942C02F9
:10053000EC2FF0E0EE0FFF1FEE58FF4FA591B491A6
:100540008FB7F894EC91111108C0D095DE23DC939D
:100550008FBFDF91CF911F910895DE2BF8CF862FAB
:10056000642F0C948102CF93DF9390E0FC01E65658
:10057000FF4F24918A579F4FFC0184918823C9F033
:1005800090E0880F991FFC01E859FF4FA591B491A5
:10059000FC01EE58FF4FC591D49161110DC09FB77A
:1005A000F8948C91209582238C938881282328832A
:1005B0009FBFDF91CF910895623051F49FB7F894B7
:1005C0003C91822F809583238C93E8812E2BEFCF53
:1005D0008FB7F894EC912E2B2C938FBFEACF862FF8
:1005E000642F0C94B3023FB7F89480916F019091FF
:1005F0007001A0917101B091720126B5A89B05C050
:100600002F3F19F00196A11DB11D3FBFBA2FA92F91
:10061000982F8827BC01CD01620F711D811D911D8E
:1006200042E0660F771F881F991F4A95D1F70895FA
:100630008F929F92AF92BF92CF92DF92EF92FF92F2
:100640004B015C010E94F3026B017C010E94F302EA
:100650006C197D098E099F09683E734081059105DB
:10066000A8F321E0821A9108A108B10888EEC80E0B
:1006700083E0D81EE11CF11C81149104A104B10493
:1006800029F7FF90EF90DF90CF90BF90AF909F90B1
:100690008F900895CF93DF93FC0101900020E9F73C
:1006A0003197AF01481B590BBC0182E891E00E94D1
:1006B0001F01EC0142E050E06CE371E082E891E060
:1006C0000E941F018C0F9D1FDF91CF9108951F92F3
:1006D0000F920FB60F9211242F933F934F935F9376
:1006E0006F937F938F939F93AF93BF93EF93FF93FA
:1006F00082E891E00E949D01FF91EF91BF91AF913F
:100700009F918F917F916F915F914F913F912F9129
:100710000F900FBE0F901F9018951F920F920FB65B
:100720000F9211242F938F939F93EF93FF93E09158
:100730009201F09193018081E0919801F0919901EB
:1007400082FD1BC0908180919B018F5F8F732091F0
:100750009C01821741F0E0919B01F0E0EE57FE4FC3
:10076000958F80939B01FF91EF919F918F912F9196
:100770000F900FBE0F901F9018958081F4CF1F929D
:100780000F920FB60F9211242F933F938F939F9345
:10079000AF93BF9380917E0190917F01A0918001E2
:1007A000B091810130916E0123E0230F2D3758F570
:1007B0000196A11DB11D20936E0180937E0190933F
:1007C0007F01A0938001B093810180916F0190918E
:1007D0007001A0917101B09172010196A11DB11D2E
:1007E00080936F0190937001A0937101B093720197
:1007F000BF91AF919F918F913F912F910F900FBE1D
:100800000F901F90189526E8230F0296A11DB11D89
:10081000D2CF109285011092840188EE93E0A0E07F
:10082000B0E08093860190938701A0938801B093F4
:10083000890184E291E0909383018093820185ECA9
:1008400090E090938F0180938E0184EC90E09093E0
:1008500091018093900180EC90E0909393018093BC
:10086000920181EC90E0909395018093940182EC49
:1008700090E0909397018093960186EC90E090939E
:1008800099018093980110929B0110929C01109203
:100890009D0110929E011092210210922502109249
:1008A00024021092260286E391E090932002809326
:1008B0001F02EBE3F2E01082148213821582369657
:1008C00082E0E737F807B9F78CE091E09093820275
:1008D0008093810288E091E0909384028093830268
:1008E00084E0809385028093860280E191E090937A
:1008F000800280937F028AE090E090938802809348
:10090000870284EF91E090938A028093890210928B
:100910008D0210928C0210927B0210927C02109237
:100920007D0210927E0210928B020895789484B515
:10093000826084BD84B5816084BD85B5826085BDDB
:1009400085B5816085BD80916E00816080936E0069
:10095000109281008091810082608093810080915B
:10096000810081608093810080918000816080930C
:1009700080008091B10084608093B1008091B000CC
:1009800081608093B00080917A00846080937A00C7
:1009900080917A00826080937A0080917A008160F1
:1009A00080937A0080917A00806880937A00109218
:1009B000C100E0919201F091930182E08083E09187
:1009C0008E01F0918F011082E0919001F0919101E0
:1009D0008FEC808310929A01E0919601F09197013B
:1009E00086E08083E0919401F0919501808180619F
:1009F0008083E0919401F0919501808188608083EB
:100A0000E0919401F0919501808180688083E0916C
:100A10009401F091950180818F7D808361E086E073
:100A20000E94B30261E087E00E94B30260E088E0C8
:100A30000E94B302812C912C54018394EE24E39400
:100A4000F12C52E0652E712C80917C0190917D01FA
:100A50008130910509F4CFC18230910509F4E7C1D5
:100A6000892B09F072C181E080938B028FB7F894D3
:100A700040917E0150917F016091800170918101D0
:100A80008FBF80917B0290917C02A0917D02B091FA
:100A90007E02481B590B6A0B7B0B80918702909159
:100AA0008802B0E0A0E084179507A607B70708F012
:100AB00059C1C0E080918502C81760F4E0918102BD
:100AC000F0918202EC0FF11D62E080810E94B3027E
:100AD000CF5FF0CF312C80918602381608F060C0CD
:100AE000C32DD0E0E0918302F0918402EC0FFD1F52
:100AF00061E080810E94B302E0918302F091840260
:100B0000EC0FFD1F60E080810E948102950184014D
:100B1000032C04C0000F111F221F331F0A94D2F7A9
:100B2000680100951095212C80918502281610F5FA
:100B3000422C512CE0918102F0918202E40DF51DCE
:100B400080810E94550292012C5F3F4FF901EE0F08
:100B5000FF1FE15EFD4F892B41F4808191818C293B
:100B60009D29918380832394DFCF8081918180238D
:100B70009123F7CFE0918302F0918402EC0FFD1FE7
:100B800061E080810E9481028091830290918402C1
:100B9000C80FD91F60E088810E94B30233949BCFB5
:100BA000CFE1D2E0FE01878D90A1892B31F4148E24
:100BB0008FEF9FEF968F858F11A2369692E0EB35DF
:100BC000F90789F710E080918502181708F053C0E3
:100BD00000E0C12ED12CCC0CDD1CF601E95DFD4FEF
:100BE0006F0120918602021708F043C0F601608170
:100BF0007181002E02C0769567950A94E2F7129FE4
:100C000090011124200F311DEFE1F2E080E0458DCD
:100C1000568D2417350709F429C18F5F36968A301F
:100C2000B1F760FF24C0EFE1F2E090E080E0448D96
:100C3000411118C0E0917F02F0918002E20FF31F92
:100C4000408156E0589FF001599FF00D1124E15E5C
:100C5000FD4F448F368F258F10A2178E61E00E94C2
:100C6000AF0005C0019636968A30910501F70F5FF7
:100C7000B8CF1F5FA8CF80E099A19111892F269648
:100C800092E0CB35D907C1F79FB7F89440917E0128
:100C900050917F0160918001709181019FBF4093CD
:100CA0007B0250937C0260937D0270937E028823C6
:100CB00009F458C080914002882309F453C0809100
:100CC0003E0290913F02019709F04CC080917A0159
:100CD00060913B0260937B01611149C080917A0170
:100CE000863099F561E071E083E791E00E943E076C
:100CF000892B09F049C08FE391E00E944A03C4E1C7
:100D0000D0E061E086E00E94810261E087E00E941D
:100D1000810264EF71E080E090E00E94180360E0DF
:100D200086E00E94810260E087E00E94810264EF19
:100D300071E080E090E00E941803F0927D01E09263
:100D40007C012197F1F610927A01E0E0F0E0EF2BC0
:100D500009F47ACE0E948901882309F475CE0E9495
:100D6000000072CE10928B0210927B01B7CFE82F59
:100D7000F0E0ED58FE4F60838F5F80937A0182E848
:100D800091E00E94BF01AACF89E491E00E944A034A
:100D900061E087E00E94810261E086E00E948102BA
:100DA0006CED75E080E090E00E94180360E087E061
:100DB0000E94810260E086E00E94810268E97AE395
:100DC00080E090E00E94180361E087E00E948102C9
:100DD00061E086E00E9481026CED75E080E090E0C9
:100DE0000E94180360E087E00E94810260E086E0D4
:100DF0000E948102A8CF80910001882381F088E0C1
:100E00000E9455020197B9F780917B01882321F058
:100E100010927D0110927C0110920001ECCF709233
:100E20007D0160927C0181E0809300018ECF61E0C2
:100E300086E00E94810261E087E00E94810285E5F0
:100E400091E00E944A0368E873E180E090E00E942C
:100E5000180360E086E00E94810260E087E00E9463
:100E60008102F0927D01E0927C016FCF6170F7CE3C
:100E7000EE0FFF1F0590F491E02D0994FB01DC01BA
:100E80008D91019080190110D9F3990B0895F89470
:020E9000FFCF92
:100E920001313233343536001011121302030405C6
:100EA200323538303134372A3336392341424344DC
:100EB20000000000BF011F014C010C027D015B011B
:100EC2006F0100000000EF02AF027E020D0A002057
:100ED200436F7272656374610020496E636F727250
:100EE2006563746100446574656363696F6E206451
:0E0EF20065206D6F76696D69656E746F000026
:00000001FF
